:020000040800F2
:1000000000000220F532000845330008453300089F
:100010004533000845330008453300080000000060
:100020000000000000000000000000007120000837
:100030004533000800000000112100089D3200082F
:1000400045330008453300084533000845330008B0
:1000500045330008453300084533000845330008A0
:100060004533000845330008453300084533000890
:100070004533000845330008453300084533000880
:100080004533000845330008453300084533000870
:100090004533000845330008453300084533000860
:1000A0004533000845330008453300084533000850
:1000B0004533000845330008453300084533000840
:1000C0004533000845330008453300084533000830
:1000D0004533000845330008453300084533000820
:1000E0004533000845330008453300084533000810
:1000F0004533000845330008453300084533000800
:1001000045330008453300084533000845330008EF
:1001100045330008453300084533000845330008DF
:1001200045330008453300084533000845330008CF
:1001300045330008453300084533000845330008BF
:1001400045330008453300084533000845330008AF
:10015000453300084533000845330008453300089F
:10016000453300084533000845330008453300088F
:1001700045330008453300084533000800000000FF
:08018000453300084533000877
:1001900010B5054C237833B9044B13B10448AFF3C1
:1001A00000800123237010BD20000020000000000B
:1001B0009033000808B5034B1BB103490348AFF364
:1001C000008008BD000000002400002090330008DB
:1001D00053B94AB9002908BF00281CBF4FF0FF31AE
:1001E0004FF0FF3000F072B9ADF1080C6DE904CEAC
:1001F00000F006F8DDF804E0DDE9022304B0704702
:100200002DE9F047089E04468846002B4BD18A42D0
:10021000154667D9B2FA82F24AB1C2F1200701FA53
:1002200002F320FA07F7954047EA030894404FEAA3
:10023000154E230CB8FBFEF71FFA85FC0EFB178842
:1002400043EA084307FB0CF1994209D9EB1807F17F
:10025000FF3080F01B81994240F21881023F2B440D
:100260005B1AA4B2B3FBFEF00EFB103344EA034466
:1002700000FB0CFCA44509D92C1900F1FF3380F0D8
:100280000781A44540F2048102382C4440EA07402B
:10029000A4EB0C0400271EB1D4400023C6E90043A0
:1002A0003946BDE8F0878B4209D9002E00F0EB807B
:1002B0000027C6E9000138463946BDE8F087B3FAA1
:1002C00083F7002F47D18B4202D3824200F2FA809B
:1002D000841A61EB030301209846002EE0D0C6E9A2
:1002E0000048DDE702B9FFDEB2FA82F2002A40F0F0
:1002F0008F80491B4FEA154E1FFA85F80127B1FB85
:10030000FEFC230C0EFB1C1143EA014308FB0CF11D
:10031000994207D9EB180CF1FF3002D2994200F252
:10032000CD808446591AA3B2B1FBFEF00EFB101427
:1003300043EA044408FB00F8A04507D92C1900F152
:10034000FF3302D2A04500F2B6801846A4EB0804A1
:1003500040EA0C409FE7C7F1200CBB4022FA0CFE9C
:100360004EEA030E01FA07F420FA0CF521FA0CF319
:100370004FEA1E482543B3FBF8F92C0C08FB193350
:100380001FFA8EFA44EA034309FB0AF49C4202FA7C
:1003900007F200FA07F10BD91EEB030309F1FF3056
:1003A00080F087809C4240F28480A9F10209734466
:1003B0001B1BADB2B3FBF8F008FB103345EA034456
:1003C00000FB0AFAA24508D91EEB040400F1FF3332
:1003D0006BD2A24569D90238744440EA0940A0FBB7
:1003E0000289A4EB0A044C45C2464B4654D351D073
:1003F000002E69D0B1EB0A0564EB030404FA0CFC8F
:10040000FD40FC404CEA0505C6E90054002747E7DB
:10041000C2F1200320FA03F7954001FA02F021FA15
:1004200003F34FEA154E3843010CB3FBFEF71FFAF6
:1004300085F80EFB173341EA034107FB08F38B42B3
:1004400004FA02F407D9691807F1FF3C2FD28B4256
:100450002DD9023F2944CB1A81B2B3FBFEF00EFB2B
:10046000103341EA034100FB08F38B4207D96918B6
:1004700000F1FF3C17D28B4215D902382944C91A22
:1004800040EA07473BE73746304609E70746E7E6D5
:100490001846FBE64145ABD2B8EB020A69EB0E0207
:1004A00001381346A4E76046E9E7184695E7674632
:1004B000D1E781467CE702382C4447E7ACF1020CD7
:1004C0002B442FE7384608E73746E9E6704700BF78
:1004D00010F8012B11F8013B012A28BF9A42F7D0EE
:1004E000D01A704710B504460E4B18784FF47A7343
:1004F000B3FBF0F30C4A1068B0FBF3F000F0A6FA7F
:1005000068B90F2C01D901200AE0002221464FF0E2
:10051000FF3000F067FA034B5C60002000E0012030
:1005200010BD00BF000000201C00002008B50B4BD0
:100530001A6842F400721A601A6842F480621A6003
:100540001A6842F480721A60032000F039FA0F2012
:10055000FFF7C8FF02F0ECFD002008BD003C0240A0
:10056000034A1168034B1B780B441360704700BFAC
:10057000883D002000000020014B1868704700BF34
:10058000883D002038B50446FFF7F6FF0546B4F174
:10059000FF3F02D0044B1B781C44FFF7EDFF401BCC
:1005A000A042FAD338BD00BF00000020494B5A6872
:1005B00022F440325A605A6841680A435A6002681D
:1005C000536823F48073536002685368016943EAF7
:1005D000012353600268536823F04073536002683C
:1005E000536881680B4353600268936823F4006387
:1005F000936002689368C1680B439360826A364BCC
:100600009A4249D00268936823F07063936002684D
:100610009368816A0B4393600268936823F04053A8
:10062000936002689368C16A0B43936002689368A1
:1006300023F00203936002689368816943EA4103EF
:100640009360036A002B32D10268536823F400637D
:1006500053600268D36A23F47003D3620168CB6AE3
:10066000C269013A43EA0253CB620268936823F4F9
:100670000073936002689368016B43EA41239360BF
:100680000268936823F48063936002689368416909
:1006900043EA8123936070470268936823F0706394
:1006A00093600268936823F040539360BEE702684A
:1006B000536843F4006353600268536823F4604353
:1006C000536001684B68426A013A43EA42334B6027
:1006D000BFE700BF002301400100000F30B310B599
:1006E0000446036C43B1236C13F0100F0AD00120B1
:1006F000002384F83C3010BD436480F83C3002F0A5
:1007000061FDF0E7236C23F4885323F0020343F0E8
:10071000020323642046FFF749FF00206064236C36
:1007200023F0030343F001032364E1E70120704752
:1007300082B00023019390F83C30012B63D0012359
:1007400080F83C3003689A6812F0010F13D19A6860
:1007500042F001029A60304B1B68304AA2FB03232F
:100760009B0C03EB4303019302E0019B013B0193CC
:10077000019B002BF9D10268936813F0010F44D05C
:10078000036C23F4E06323F0010343F480730364F8
:10079000536813F4806F05D0036C23F4405343F483
:1007A00080530364036C13F4805F19D0436C23F00F
:1007B00006034364002380F83C306FF0220313608B
:1007C000174B5B6813F01F0F0DD103689A6812F086
:1007D000405F1DD19A6842F080429A60002015E087
:1007E00000234364E6E703680E4A934201D00020E9
:1007F0000CE09A6812F0405F0CD19A6842F0804297
:100800009A60002002E0022000E0002002B0704761
:100810000020FBE70020F9E71C00002083DE1B43DB
:1008200000230140002001400368D86C704700009D
:1008300030B482B00023019390F83C30012B00F0DB
:10084000B780012380F83C300B68092B3ED905683E
:10085000EA689BB203EB43031E3B072404FA03F34D
:1008600022EA0303EB600568EA688C680B8803EBF7
:1008700043031E3B04FA03F31343EB604B68062B60
:100880003AD805686A6B03EB8303053B1F2404FA1F
:1008900003F322EA03036B6305686A6B4B6803EB9F
:1008A0008303053B0C8804FA03F313436B6302686C
:1008B000404B9A4250D002683E4B9A4255D000239A
:1008C00080F83C30184602B030BC704705682A6991
:1008D0009BB203EB4303072404FA03F322EA030366
:1008E0002B6105682A698C680B8803EB430304FAC3
:1008F00003F313432B61C1E70C2B16D805682A6B51
:1009000003EB8303233B1F2404FA03F322EA0303CC
:100910002B6305682A6B4B6803EB8303233B0C882E
:1009200004FA03F313432B63C1E70568EA6A03EB98
:100930008303413B1F2404FA03F322EA0303EB621F
:100940000568EA6A4B6803EB8303413B0C8804FAB1
:1009500003F31343EB62AAE70B68122BABD1164AE1
:10096000536843F480035360A5E70B68103B012BE9
:10097000A5D8114A536843F4000353600B68102B49
:100980009DD10E4B1B6802F1467202F52E3202F227
:100990008332A2FB03239B0C03EB83035A000192D7
:1009A00002E0019B013B0193019B002BF9D186E7FB
:1009B000022088E700200140002301401C000020A5
:1009C000074AD36823F4E0631B041B0C000200F405
:1009D000E060184340F0BF6040F40030D0607047E2
:1009E00000ED00E030B4174BDB68C3F30223C3F122
:1009F0000704042C28BF04241D1D062D18D9033B11
:100A00004FF0FF3505FA04F421EA0401994005FA94
:100A100003F322EA0303194300280BDB0901C9B2DF
:100A200000F1604000F5614080F8001330BC704771
:100A30000023E5E700F00F000901C9B2024B195489
:100A4000F4E700BF00ED00E014ED00E00138B0F184
:100A5000807F0AD2064B5860064AF02182F82310A4
:100A60000020986007221A6070470120704700BF7D
:100A700010E000E000ED00E0042805D0054A13680E
:100A800023F0040313607047024A136843F0040321
:100A90001360704710E000E000230F2B00F2D780B6
:100AA000F0B482B039E0072200E00022B2403A43BD
:100AB0000234674E46F82420664A1468EA4302EA84
:100AC00004064F6817F4803F01D045EA0406614CE4
:100AD0002660646802EA04064F6817F4003F01D0FC
:100AE00045EA04065B4C6660A46802EA04064F68A7
:100AF00017F4801F01D045EA0406564CA660E4684E
:100B000022404E6816F4001F01D045EA0402514C01
:100B1000E26001330F2B00F2978001229A400C68AB
:100B200004EA0205AA42F4D14C68022C01D0122C2E
:100B300010D1DE08083650F826C003F00704A700DD
:100B40000F24BC402CEA040C0C69BC4044EA0C04A1
:100B500040F8264004685F000326BE40F64306EADC
:100B6000040C4C6804F00304BC4044EA0C04046028
:100B70004C6804F1FF3CBCF1010F03D9112C01D0EA
:100B8000122C10D1846806EA040CCC68BC4044EAFC
:100B90000C048460446824EA02024C68C4F3001424
:100BA0009C4014434460C26816408A68BA4032438D
:100BB000C2604A6812F0805FABD000220192264AE0
:100BC000546C44F480445464526C02F480420192A8
:100BD000019A9C08A61C1E4A52F8267003F00302D4
:100BE00096000F22B24027EA02071C4A90423FF4C7
:100BF0005CAF02F5806290421AD002F580629042AA
:100C000018D002F58062904216D002F580629042C0
:100C100014D002F58062904212D002F580629042B8
:100C200010D002F5806290423FF43DAF08223DE7CC
:100C300001223BE7022239E7032237E7042235E7A6
:100C4000052233E7062231E702B0F0BC7047704757
:100C500000380140003C01400038024000000240E2
:100C600012B909048161704781617047002800F062
:100C7000BB8170B582B00446036813F0010F3BD00E
:100C8000A74B9B6803F00C03042B2CD0A44B9B6850
:100C900003F00C03082B21D06368B3F5803F4FD0DD
:100CA000B3F5A02F52D09E4B1A6822F480321A60FE
:100CB0001A6822F480221A606368002B50D0FFF774
:100CC0005BFC0546964B1B6813F4003F14D1FFF7FD
:100CD00053FC401B6428F5D903208AE1904B5B68E4
:100CE00013F4800FD8D08E4B1B6813F4003F03D051
:100CF0006368002B00F07A81236813F0020F55D04F
:100D0000874B9B6813F00C0F3ED0854B9B6803F01C
:100D10000C03082B33D0E368002B68D0814B0122F1
:100D20001A60FFF729FC05467D4B1B6813F0020F84
:100D300054D1FFF721FC401B0228F5D9032058E1CC
:100D4000774A136843F480331360B5E7744B1A682D
:100D500042F480221A601A6842F480321A60ABE7CB
:100D6000FFF70AFC05466E4B1B6813F4003FC3D027
:100D7000FFF702FC401B6428F5D9032039E1684BDA
:100D80005B6813F4800FC6D1654B1B6813F0020F2C
:100D900004D0E368012B01D001202AE1604A1368E6
:100DA00023F0F803216943EAC1031360236813F0B9
:100DB000080F40D0636963B35B4B01221A60FFF7F1
:100DC000DBFB0546564B5B6F13F0020F33D1FFF789
:100DD000D3FB401B0228F5D903200AE1504A1368CF
:100DE00023F0F803216943EAC1031360DEE74D4BAA
:100DF00000221A60FFF7C0FB0546494B1B6813F041
:100E0000020FD3D0FFF7B8FB401B0228F5D903200F
:100E1000EFE0454B00221A60FFF7AEFB0546404B62
:100E20005B6F13F0020F06D0FFF7A6FB401B0228F2
:100E3000F5D90320DDE0236813F0040F79D0384B97
:100E40001B6C13F0805F33D100230193344B1A6C79
:100E500042F080521A641B6C03F080530193019B93
:100E60000125324B1B6813F4807F23D0A368012B2C
:100E700034D0052B38D02A4B1A6F22F001021A67A2
:100E80001A6F22F004021A67A368002B36D0FFF70E
:100E900073FB0646224B1B6F13F0020F48D1FFF77E
:100EA0006BFB801B41F288339842F3D90320A0E00A
:100EB0000025D6E71D4A136843F480731360FFF7DB
:100EC0005BFB0646194B1B6813F4807FCED1FFF7FE
:100ED00053FB801B0228F5D903208AE0104A136FC8
:100EE00043F001031367CFE70D4B1A6F42F0040282
:100EF0001A671A6F42F001021A67C5E7FFF73CFB59
:100F00000646074B1B6F13F0020F11D0FFF734FB9F
:100F1000801B41F288339842F3D9032069E000BF77
:100F20000038024000004742800E474200700040F7
:100F3000E5B9A369002B5BD0304A926802F00C023D
:100F4000082A58D0022B17D02D4B00221A60FFF729
:100F500013FB0446294B1B6813F0007F42D0FFF7B8
:100F60000BFB001B0228F5D9032042E0234A136C37
:100F700023F080531364DCE7214B00221A60FFF753
:100F8000FBFA05461D4B1B6813F0007F06D0FFF7E8
:100F9000F3FA401B0228F5D903202AE0E369226A0C
:100FA0001343626A43EA8213A26A5208013A43EA8F
:100FB0000243E26A43EA0263104A5360104B012283
:100FC0001A60FFF7D9FA04460C4B1B6813F0007F38
:100FD00006D1FFF7D1FA001B0228F5D9032008E05B
:100FE000002006E0002004E001207047012000E01E
:100FF000002002B070BD0120FBE700BF00380240B6
:1010000060004742324B9B6803F00C03042B5CD01A
:10101000082B01D02F4870472DE9F04B2C4B5A6814
:1010200002F03F025B6813F4800F2BD0284B5B6803
:10103000C3F388131E4600275C010025E41A65EB04
:101040000705A90141EA9461A001001B61EB0501BC
:10105000CB0043EA5073C400A01943EB07014B02D5
:1010600043EAD0534402204619460023FFF7B0F864
:10107000174B5B68C3F3014301335B00B0FBF3F034
:10108000BDE8F08B124B5B68C3F388131E46002744
:101090005C010025E41A65EB0705A90141EA9461AA
:1010A000A001001B61EB0501CB0043EA5073C400B3
:1010B000A01943EB07018B0243EA905384022046B8
:1010C00019460023FFF784F8D2E70348704700BFB2
:1010D000003802400024F40000127A00002800F0DA
:1010E0009D8070B504464F4B1B6803F00F038B4285
:1010F00009D2CBB24B4A1370136803F00F038B4233
:1011000001D0012070BD236813F0020F17D013F037
:10111000040F04D0444A936843F4E0539360236877
:1011200013F0080F04D0404A936843F4604393607F
:101130003D4A936823F0F003A068034393600D4693
:10114000236813F0010F32D06368012B21D09A1E5F
:10115000012A25D9344A126812F0020F60D03249B0
:101160008A6822F0030213438B60FFF705FA0646F4
:101170002D4B9B6803F00C036268B3EB820F16D013
:10118000FFF7FAF9801B41F288339842F0D9032027
:10119000B8E7254A126812F4003FE0D10120B1E718
:1011A000214A126812F0007FD9D10120AAE71D4B15
:1011B0001B6803F00F03AB4209D9EAB2194B1A704E
:1011C0001B6803F00F03AB4201D001209AE72368AC
:1011D00013F0040F06D0144A936823F4E053E16837
:1011E0000B439360236813F0080F07D00E4A9368EF
:1011F00023F46043216943EAC1039360FFF702FFD0
:10120000094B9B68C3F30313084AD35CD840084BCF
:1012100018600F20FFF766F9002073E70120704780
:1012200001206FE7003C024000380240E83300082C
:101230001C000020014B1868704700BF1C000020F4
:1012400008B5FFF7F7FF044B9B68C3F38223034AFB
:10125000D35CD84008BD00BF00380240F833000816
:1012600008B5FFF7E7FF044B9B68C3F34233034A1B
:10127000D35CD84008BD00BF00380240F8330008F6
:101280002DE9F843044601680A6922F44052C36814
:1012900013430B610168CA6822F4164222F00C0263
:1012A00083680069034360690343E06903431343B0
:1012B000CB6021684A6922F44072A36913434B61F1
:1012C000E369B3F5004F60D02368B84A934200F059
:1012D000148102F58062934200F00F81FFF7B0FFA6
:1012E00000EB800000EB80006568AD00B0FBF5F519
:1012F000AF4FA7FB05356D092E01FFF7A1FF00EBEE
:10130000800000EB80006568AD00B0FBF5F9FFF7E9
:1013100097FF00EB800000EB80006568AD00B0FB3C
:10132000F5F5A7FB05356D094FF0640808FB159529
:101330002D013235A7FB05356D0905F0F005354463
:10134000FFF77EFF00EB800000EB80006668B600D0
:10135000B0FBF6F6FFF774FF00EB800000EB8000B7
:1013600063689B00B0FBF3F0A7FB0030400908FB6B
:1013700010684FEA081808F13208A7FB0837C7F3CE
:10138000431723682F449F600DE12368874A9342E7
:101390005BD002F58062934257D0FFF751FF00EB1C
:1013A000800000EB800065686D00B0FBF5F5804FB4
:1013B000A7FB05356D092E01FFF742FF00EB80000A
:1013C00000EB800065686D00B0FBF5F9FFF738FFB2
:1013D00000EB800000EB800065686D00B0FBF5F568
:1013E000A7FB05356D094FF0640808FB1595ED0066
:1013F0003235A7FB05356D096D0005F4F8753544E8
:10140000FFF71EFF00EB800000EB800066687600AF
:10141000B0FBF6F6FFF714FF00EB800000EB800056
:1014200063685B00B0FBF3F3A7FB03235B0908FBD6
:1014300013684FEAC80808F13208A7FB0837C7F35A
:10144000421723682F449F60ADE0FFF709FF00EBD0
:10145000800000EB800065686D00B0FBF5F5544F2F
:10146000A7FB05356D092E01FFF7FAFE00EB8000A2
:1014700000EB800065686D00B0FBF5F9FFF7F0FE4A
:1014800000EB800000EB800065686D00B0FBF5F5B7
:10149000A7FB05356D094FF0640808FB1595ED00B5
:1014A0003235A7FB05356D096D0005F4F875354437
:1014B000FFF7D6FE00EB800000EB80006668760048
:1014C000B0FBF6F6FFF7CCFE00EB800000EB8000EF
:1014D00063685B00B0FBF3F3A7FB03235B0908FB26
:1014E00013684FEAC80808F13208A7FB0837C7F3AA
:1014F000421723682F449F6055E0FFF7B1FE00EBD1
:10150000800000EB80006568AD00B0FBF5F5284F6A
:10151000A7FB05356D092E01FFF7A2FE00EB800049
:1015200000EB80006568AD00B0FBF5F9FFF798FEB1
:1015300000EB800000EB80006568AD00B0FBF5F5C6
:10154000A7FB05356D094FF0640808FB15952D01C3
:101550003235A7FB05356D0905F0F0053544FFF779
:101560007FFE00EB800000EB80006668B600B0FBF9
:10157000F6F6FFF775FE00EB800000EB8000636875
:101580009B00B0FBF3F0A7FB0030400908FB10689C
:101590004FEA081808F13208A7FB0837C7F34317CA
:1015A00023682F449F60BDE8F88300BF001001400E
:1015B0001F85EB512DE9F04105460F46164698462A
:1015C000069C2B681B6837EA03030CBF012300232A
:1015D000B3421DD1B4F1FF3FF3D02CB1FEF7CCFFE5
:1015E000A0EB0800A042ECD92A68D36823F4D0739A
:1015F000D3602A68536923F001035361202385F8DF
:10160000393085F83A30002385F83830032000E07F
:101610000020BDE8F08158B310B5044690F8393089
:101620000BB3242384F839302268D36823F40053A1
:10163000D3602046FFF724FE2268136923F4904309
:1016400013612268536923F02A0353612268D36827
:1016500043F40053D3600020E063202384F8393042
:1016600084F83A3010BD80F8383001F0EDFDD8E74D
:10167000012070472DE9F04182B01E4690F83930C4
:10168000DBB2202B55D104460D469046002955D09B
:10169000002A55D090F83830012B53D0012380F820
:1016A00038300023C363212380F83930FEF764FF0C
:1016B0000746A4F82480A4F8268010E000963B4654
:1016C000002280212046FFF775FF00283CD12B889F
:1016D0002268C3F3080353602369C3B90235E38C5E
:1016E0009BB2B3B1E38C013B9BB2E384A368B3F537
:1016F000805FE3D000963B46002280212046FFF722
:1017000059FF18BB2A7823685A600135E7E701358D
:10171000E5E700963B46002240212046FFF74AFFBE
:101720000346A8B9202284F83920002284F8382002
:1017300000E00223184602B0BDE8F0810123F9E77A
:101740000123F7E70223F5E70323F3E70323F1E798
:101750000323EFE72DE9F04182B01E4690F83A30BE
:10176000DBB2202B5AD104460D469046002959D0B1
:10177000002A59D090F83830012B57D0012380F837
:1017800038300023C363222380F83A30FEF7F4FE9A
:101790000746A4F82C80A4F82E801DE000963B4656
:1017A000002220212046FFF705FF002840D12369B1
:1017B00033B923685B68C3F3080325F8023B0BE0E9
:1017C00023685B68DBB225F8013B05E023685B68B2
:1017D00003F07F032B700135E38D9BB2BBB1E38D2A
:1017E000013B9BB2E385A368B3F5805FD6D000963A
:1017F0003B46002220212046FFF7DCFED0B92369BA
:10180000002BE3D123685B682B700135E4E72023CC
:1018100084F83A30002084F8380000E0022002B05A
:10182000BDE8F0810120FAE70120F8E70220F6E7A1
:101830000320F4E70320F2E7842801D00330704747
:101840000020704708B500F0C9F9002008BDF0B5C8
:1018500085B00F46446805680669B0F90800FFF7CF
:10186000EBFF03AB019300903B46B2B22946204602
:1018700000F082F9012802D1039805B0F0BD0020E4
:10188000FBE708B5034600B90123184600F0E8FA63
:10189000002008BD08B500F08FFB012801D000F042
:1018A00069FC08BD00F1080343604FF0FF3282601D
:1018B000C360036100230360704700230361704726
:1018C00043684B609A688A609A68516099600861C1
:1018D000036801330360704730B40D68B5F1FF3F12
:1018E00002D000F1080202E0026904E01A465368DF
:1018F0001C68AC42FAD953684B6099608A605160A9
:10190000086103680133036030BC704703694268B3
:10191000816891608268416851605A68824205D04E
:1019200000220261186801381860704782685A60A6
:10193000F6E70000074B9B6A1B6833B1054B9A6AB8
:10194000D268D2685268DA627047024B4FF0FF32B9
:10195000DA6270473C00002010B50446006B00F0CE
:1019600073FD204600F070FD10BD2DE9F047804664
:101970009946089D099F0A9C266B02F18042013A14
:1019800006EB820626F0070600230F2B07D8C85C5B
:10199000E21882F83400CA5C0AB10133F5E700238B
:1019A00084F84330062D00D90625E56265644FF0C2
:1019B000000AC4F848A0201DFFF77FFF04F11800BB
:1019C000FFF77BFF2461C5F10705A5616462C4F8D8
:1019D0004CA084F850A04A464146304600F030FB07
:1019E000206007B13C60BDE8F087000070B50024BE
:1019F00007E004EB8402930010481844FFF752FFFD
:101A00000134062CF5D90E4C04F1BC063046FFF724
:101A100049FF04F1D0052846FFF744FF04F1140004
:101A2000FFF740FF04F1E400FFF73CFF2046FFF71B
:101A300039FFA662C4F8F85070BD00BF6C000020EA
:101A40003C00002038B5054600F024FB264BD3F8B7
:101A5000FC200132C3F8FC20D3F8003173B1224BD3
:101A6000D3F804318BB9204BD3F80031DA6AEB6A32
:101A70009A420AD81C4BC3F8005106E01A4BC3F82F
:101A80000051D3F8FC30012B2AD0174CD4F8083180
:101A90000133C4F80831EB6A01229A40D4F80C11E2
:101AA0000A43C4F80C2104F1300003EB83039A00CD
:101AB000291D1044FFF704FF00F00EFBD4F8043199
:101AC0006BB1D4F80031DA6AEB6A9A4207D2074B5D
:101AD0004FF080521A60BFF34F8FBFF36F8F38BD46
:101AE000FFF784FFD1E700BF3C00002004ED00E0D9
:101AF00070B504460E461F4BD3F81051D3F80001C1
:101B00000430FFF703FF60B91A4BD3F80021D16A04
:101B1000012202FA01F1D3F80C2122EA0102C3F8F2
:101B20000C21B4F1FF3F12D02C44124BD3F80031FA
:101B30005C60A54214D80F4DA86AD5F80011043195
:101B4000FFF7CAFEEB6AA34212D9EC6210E0002E46
:101B5000EAD00848D0F800110431FFF7B1FE07E0E1
:101B6000044BD3F8F800D3F800110431FFF7B4FEAA
:101B700070BD00BF3C0000202DE9F04385B0074652
:101B8000884615469946900000F0E4FBF8B10646F9
:101B9000542000F0DFFB0446A8B10663D4B1002353
:101BA000039302940D9B01930C9B00934B462A4692
:101BB00041463846FFF7D9FE2046FFF743FF012094
:101BC00005B0BDE8F083304600F03EFCE6E74FF09C
:101BD000FF30F5E74FF0FF30F2E7000000B583B0CB
:101BE000174B019300230093802216491648FFF7F4
:101BF000C3FF012805D0B0F1FF3F17D003B05DF857
:101C000004FB4FF0500383F31188BFF36F8FBFF3D2
:101C10004F8F0E4B4FF0FF32DA620122C3F80421DE
:101C20000022C3F8102100F0D1FAE7E74FF050038B
:101C300083F31188BFF36F8FBFF34F8FFEE700BFB1
:101C40005801002000340008011F00083C0000205B
:101C5000034AD2F818310133C2F81831704700BF77
:101C60003C0000202DE9F041404BD3F81831002B07
:101C70006CD13E4BD3F810510135C3F81051CDB99A
:101C80009B6A1B6843B14FF0500383F31188BFF385
:101C90006F8FBFF34F8FFEE7344B9A6AD3F8F8107B
:101CA0009962C3F8F820D3F820210132C3F820212B
:101CB000FFF740FE2D4BDB6AAB423DD900242B4A97
:101CC000D2F80031DB6A03EB830399000A44136BFB
:101CD000012B42D9012440E00124244B9B6A1B685C
:101CE00063B3224B9B6ADB68DE6873689D422AD32C
:101CF00006F104084046FFF709FEB36A1BB106F17E
:101D00001800FFF703FEF36A01229A40174FD7F835
:101D10000C110A43C7F80C2107F1300003EB8303D1
:101D20009A0041461044FFF7CBFDF26AD7F8003124
:101D3000DB6A9A42D0D2D0E70024CEE70B4B4FF0BB
:101D4000FF32DA62BBE7094AD362B8E7074AD2F842
:101D500024310133C2F824310024044BD3F8283154
:101D600003B101242046BDE8F08100BF3C00002003
:101D7000394BD3F8183143B94FF0500383F311882E
:101D8000BFF36F8FBFF34F8FFEE770B500F082F99E
:101D9000314BD3F81821013AC3F81821D3F8183180
:101DA000002B54D12C4BD3F8FC3023B9002400F085
:101DB00093F9204670BD0024274B5B692BB3264D59
:101DC0002B6ADC6804F11800FFF7A0FD261D3046E1
:101DD000FFF79CFDE36A01229A40D5F80C110A43F3
:101DE000C5F80C2105F1300003EB83039A0031465E
:101DF0001044FFF765FDE26AD5F80031DB6A9A42CC
:101E0000DAD30122C5F82821D6E70CB1FFF792FDFD
:101E1000114BD3F8244164B1FFF724FF18B10E4BE6
:101E20000122C3F82821013CF6D10B4B0022C3F854
:101E30002421094BD3F828315BB1084B4FF0805275
:101E40001A60BFF34F8FBFF36F8F0124AFE70024F9
:101E5000ADE70024ABE700BF3C00002004ED00E04C
:101E600010B5B0B104460F4BD3F8183143B14FF061
:101E7000500383F31188BFF36F8FBFF34F8FFEE7DB
:101E8000FFF7E6FE00212046FFF732FEFFF770FF66
:101E900038B9054B4FF080521A60BFF34F8FBFF334
:101EA0006F8F10BD3C00002004ED00E038B5134BEF
:101EB000D3F814310BB3FFF7CBFE104BD3F8E4404B
:101EC000FFF756FF002CF2D000F0E4F80B4CD4F8EA
:101ED000F030DD68281DFFF719FDD4F8FC30013B18
:101EE000C4F8FC30D4F81431013BC4F8143100F0CC
:101EF000F3F82846FFF730FDD9E738BD3C00002055
:101F000008B5FFF7D3FF064B1B6B012BF9D9054B27
:101F10004FF080521A60BFF34F8FBFF36F8FF0E71F
:101F20003C00002004ED00E0224BD3F8183123B12F
:101F3000204B0122C3F8282170471E4A0023C2F813
:101F40002831D2F80C31B3FA83F3DBB2C3F11F03AB
:101F500003EB830081000A44126B42B94FF0500337
:101F600083F31188BFF36F8FBFF34F8FFEE710B479
:101F7000104A9900CC18A0001044446B6468446374
:101F80003032194488000830024494420BD0094989
:101F900003EB83039A000A44536BDB68C1F80031FA
:101FA0005DF8044B704761680248142202FB03028B
:101FB0005163ECE73C000020064BD3F804313BB101
:101FC000044BD3F818310BB1002070470220704742
:101FD000012070473C0000200B4B1B68B3F1FF3F12
:101FE00008D04FF0500383F31188BFF36F8FBFF316
:101FF0004F8FFEE74FF0500383F31188BFF36F8FCD
:10200000BFF34F8FFEE700BF0800002006480068BE
:10201000006880F3088862B661B6BFF34F8FBFF3E4
:102020006F8F00DF00BF000008ED00E0DFF80C005C
:10203000016841F4700101607047000088ED00E024
:102040004FF0807340F8043C21F0010140F8081C77
:10205000054B40F80C3C40F8202C6FF0020340F890
:10206000243C4438704700BFD91F0008000000001E
:10207000074B19680868B0E8F04F80F30988BFF390
:102080006F8F4FF0000080F311887047AFF300802E
:102090003C0100204FF0500383F31188BFF36F8F92
:1020A000BFF34F8F0A4A136801331360012B00D02E
:1020B0007047084B1B6813F0FF0FF9D04FF0500327
:1020C00083F31188BFF36F8FBFF34F8FFEE700BF1D
:1020D0000800002004ED00E0094B1B6843B94FF0F5
:1020E000500383F31188BFF36F8FBFF34F8FFEE769
:1020F000013B034A13600BB983F31188704700BF9B
:1021000008000020000000000000000000000000A7
:10211000EFF30980BFF36F8F154B1A681EF0100F95
:1021200008BF20ED108A20E9F04F10604DF8043D03
:102130004FF0500080F31188BFF34F8FBFF36F8FC4
:10214000FFF7F2FE4FF0000080F3118808BC196819
:102150000868B0E8F04F1EF0100F08BFB0EC108A0E
:1021600080F30988BFF36F8F704700BFAFF3008023
:102170003C01002008B54FF0500383F31188BFF3F2
:102180006F8FBFF34F8FFFF76DFD18B1034B4FF00B
:1021900080521A60002383F3118808BD04ED00E02B
:1021A000064B1B68064AA2FB03239B09013B054A19
:1021B0001360054B07221A60704700BF1C00002007
:1021C000D34D621014E000E010E000E0314B1A68DB
:1021D000314B9A420DD02F4B1A68304B9A4211D195
:1021E0004FF0500383F31188BFF36F8FBFF34F8F0E
:1021F000FEE74FF0500383F31188BFF36F8FBFF3F7
:102200004F8FFEE700B583B0254B1A78D2B201920A
:10221000FF221A701B78DBB28DF803309DF8033073
:1022200003F050031F4A1370072353609DF80330D7
:1022300013F0800F0AD01B4A5368013B53609DF88E
:1022400003305B00DBB28DF80330EFE7154A5368CB
:102250001B0203F4E0635360019BDBB2104A13706E
:10226000114B1A6842F470021A601A6842F0704208
:102270001A60FFF795FF0D4B00221A60FFF7D6FE9C
:102280000B4A136843F040431360FFF7BFFEFFF7AC
:10229000A3FE00BF00ED00E071C20F4170C20F410C
:1022A00000E400E06801002020ED00E008000020CC
:1022B00034EF00E0104A12F0070F1AD0D11D21F0C0
:1022C0000701C1F5705313440A460C490A60002007
:1022D00048601344083B23F007038B605860186084
:1022E000981A50601360C86008614FF000434B615A
:1022F00070474FF47053E8E7880100207001002018
:1023000010B4134B1A6882421BD359685C1884427C
:1023100003D1406801445960184641684418A242FC
:1023200013D10B4CA468A2420DD0526811444160F5
:102330001A6812680260984200D018605DF8044B79
:1023400070471346DEE70460F5E70260F3E700BF7D
:102350007001002070B50446FFF77AFC394B9B688A
:10236000BBB1384B5B691C4262D1ACB1083414F08C
:10237000070F11D024F00704083404F007035BB101
:102380004FF0500383F31188BFF36F8FBFF34F8F6C
:10239000FEE7FFF78FFFE4E7002C4BD0294B1B69CA
:1023A000A34249D3274B1D6801E02B4615466A68B6
:1023B000A24202D22A68002AF7D1224A9268AA428F
:1023C0003CD01E6808362A681A606B681B1B102BED
:1023D00010D9281910F0070F08D04FF0500383F3DD
:1023E0001188BFF36F8FBFF34F8FFEE743606C60C0
:1023F000FFF786FF6968134A13695B1A1361D26895
:10240000934201D20F4AD3600E4B5B690B436B6062
:1024100000232B60FFF7ACFC16F0070F10D04FF035
:10242000500383F31188BFF36F8FBFF34F8FFEE725
:102430000026EFE70026EDE70026EBE70026E9E7B8
:10244000304670BD7001002080B338B50446A0F15D
:10245000080550F8042C164949690A4208D14FF082
:10246000500383F31188BFF36F8FBFF34F8FFEE7E5
:1024700050F8080C40B14FF0500383F31188BFF3BC
:102480006F8FBFF34F8FFEE722EA010244F8042C5E
:10249000FFF7DEFB54F8041C054A13690B44136173
:1024A0002846FFF72DFFFFF763FC38BD704700BFDC
:1024B0007001002070B58AB00C4C05AD26460FCED9
:1024C0000FC533682B60002105A8FFF7C0F96D46E2
:1024D00014340FCC0FC523682B6000216846FFF72A
:1024E000B6F90120FFF7CDF9FBE700BFA8330008DC
:1024F0002DE9F04F8DB0002401948A4B1A6B42F005
:1025000010021A631A6B02F010020192019A0294EF
:102510001A6B42F004021A631A6B02F00402029270
:10252000029A03941A6B42F080021A631A6B02F04B
:1025300080020392039A04941A6B42F001021A6318
:102540001A6B02F001020492049A05941A6B42F08D
:1025500002021A631A6B02F002020592059A0694AF
:102560001A6B42F008021A631B6B03F00803069310
:10257000069B224608216C48FEF772FBDFF8BC81FF
:10258000224642F206014046FEF76AFB012211464E
:102590004046FEF765FB22464FF2DF016348FEF737
:1025A0005FFB224630216248FEF75AFB082507955B
:1025B0000126089609940A9407A95B48FEF76CFA6D
:1025C00042F207030793089609940A9407A9404624
:1025D000FEF762FA07950225089509940A944FF0D0
:1025E0000509CDF82C9007A94046FEF755FA079645
:1025F000504F0897099407A94F48FEF74DFA10234A
:102600000793089509940A944FF0060BCDF82CB067
:1026100007A94948FEF740FAE02307930895099473
:102620000A94CDF82C9007A94348FEF735FA4FF0ED
:10263000040ACDF81CA00894099407A93C48FEF7A9
:102640002BFA4FF480630793089509940A94CDF808
:102650002C9007A93648FEF71FFA4FF2DF030793C5
:10266000089609940A9407A93048FEF715FA4FF422
:10267000A4530793089509940A94CDF82CB007A9A0
:102680004046FEF709FA4FF4407307930894099403
:1026900007A94046FEF700FA4FF4807307930894A9
:1026A000099407A92448FEF7F7F94FF4007307933C
:1026B0000894099407A92048FEF7EEF94FF4E05377
:1026C0000793089509940A940A230B9307A91A48BB
:1026D000FEF7E2F9202307930894099407A9134809
:1026E000FEF7DAF930230793089609940A9407A9AC
:1026F0000F48FEF7D1F94FF4107307931223089394
:1027000009960A94CDF82CA007A90948FEF7C4F948
:1027100007950897099407A90348FEF7BDF90DB07E
:10272000BDE8F08F0038024000100240000C02406B
:1027300000040240000012100000024000080240A5
:1027400008B564230A2204490448FEF793FF0520D4
:10275000FDF718FF002008BD883E0020443E002001
:1027600008B564230A2204490448FEF783FF0520C4
:10277000FDF708FF002008BD283E0020443E002051
:1027800008B555E0604B31225A70012202215F48A2
:10279000FEF766FA64E05C4B31229A700122042154
:1027A0005A48FEF75DFA5FE0574B3122DA7001229A
:1027B0004FF400515548FEF753FA59E0524B31227D
:1027C0001A71012211465248FEF74AFA54E04E4B64
:1027D00031225A71012202214D48FEF741FA4FE0A1
:1027E00098421EDB4B4B1B79312B1AD0494B3122BF
:1027F0001A71494B5B78322B4FD0474B9B78322B69
:1028000054D0454BDB78322B59D0434B1B79322BBC
:102810005FD0414B5B79322B64D03F4B9B79322B9D
:1028200069D0FFF78DFFFFF79BFF6420FFF729F8C2
:102830003A4C2046FDF77CFF2046FDF7F5FF384B6C
:102840001860344B1B689842CADA324A1279302A2F
:10285000C6D0304B30221A712F4B5B78322B91D07F
:102860002D4B9B78322B96D02B4BDB78322B9BD089
:10287000294B1B79322BA1D0274B5B79322BA6D069
:10288000254B9B79322BCCD11F4B31229A710122DF
:1028900004211F48FEF7E4F9C3E71B4B30225A70AE
:1028A000002202211948FEF7DBF9A6E7164B302279
:1028B0009A70002204211548FEF7D2F9A1E7124BC5
:1028C0003022DA7000224FF400511048FEF7C8F9A8
:1028D0009BE70D4B30221A71002201210C48FEF7B4
:1028E000BFF996E7084B30225A71002202210848AE
:1028F000FEF7B6F991E7044B30229A7100220421C9
:102900000348FEF7ADF98CE7883E0020000802403E
:10291000000C02400C000020283E0020E03D00207A
:10292000DC3D0020002304E0084AD15C084AD15471
:102930000133072B07DC022BF6DDDA1E0349C85CE6
:1029400004498854F4E70020704700BF343E00205B
:10295000843E00203C3E002008B58B498B48FDF7A3
:10296000B7FD002840F0348189498A48FDF7B0FD61
:1029700018B9894B5B78312B79D088498548FDF7A8
:10298000A7FD18B9844B5B78312B7ED084498148F0
:10299000FDF79EFD20B9804B9B78312B00F08380A2
:1029A00080497C48FDF794FD20B97B4B9B78312B07
:1029B00000F087807C497748FDF78AFD20B9764B87
:1029C000DB78312B00F08B8078497248FDF780FD71
:1029D00020B9714BDB78312B00F0908074496D4841
:1029E000FDF776FD20B96C4B1B79312B00F09580FB
:1029F00070496848FDF76CFD20B9674B1B79312B96
:102A000000F096806C496348FDF762FD20B9624B87
:102A10005B79312B00F0978068495E48FDF758FDDF
:102A200020B95D4B5B79312B00F09880644959489F
:102A3000FDF74EFD20B9584B9B79312B00F0998062
:102A400060495448FDF744FD002840F03181524B65
:102A50009B79312B40F02C815B4B30229A71002204
:102A600004215A48FEF7FCF8FFF76AFE20E1564BB6
:102A700031225A700122022100F1804000F502301B
:102A8000FEF7EEF8FFF75CFE12E14F4B30225A7072
:102A90000022022100F1804000F50230FEF7E0F84C
:102AA000FFF74EFE04E1484B31229A7001220421C7
:102AB00000F1804000F50230FEF7D2F8FFF740FE4B
:102AC000F6E0414B30229A700022042100F1804050
:102AD00000F50230FEF7C4F8FFF732FEE8E03A4BAB
:102AE0003122DA7001224FF4005100F1804000F5EC
:102AF0000230FEF7B5F8FFF723FED9E0324B302263
:102B0000DA7000224FF4005100F1804000F50230ED
:102B1000FEF7A6F8FFF714FECAE02B4B31221A711C
:102B2000012211462948FEF79BF8FFF709FEBFE096
:102B3000254B30221A71002201212448FEF790F81B
:102B4000FFF7FEFDB4E0204B31225A710122022131
:102B50001E48FEF785F8FFF7F3FDA9E01A4B302277
:102B60005A71002202211948FEF77AF8FFF7E8FDB2
:102B70009EE0154B31229A71012204211348FEF781
:102B80006FF8FFF7DDFD93E010340008843E00206D
:102B9000143400083C3E0020283E00201C3400086D
:102BA000243400082C340008343400083C34000875
:102BB000443400084C340008543400085C340008E5
:102BC000643400086C340008883E0020000C024089
:102BD000A349A448FDF77CFC002869D1A249A34879
:102BE000FDF776FC00285ED0A149A048FDF770FCF7
:102BF000002862D09F499D48FDF76AFC00287DD0DF
:102C00009D499A48FDF764FC00287DD09B49974870
:102C1000FDF75EFC002800F0988099499348FDF785
:102C200057FC002800F0978096499048FDF750FC2B
:102C3000002800F0B38094498C48FDF749FC002837
:102C400000F0B28091498948FDF742FC002800F06D
:102C5000CD808F498548FDF73BFC002800F0CC80F3
:102C60008C498248FDF734FC002800F0E7808A494F
:102C70007E48FDF72DFCD8B9884B32229A71FFF7B8
:102C80006FFD874B1B79302B00F0DE80312B0FD18D
:102C9000844B30229A71002204218348FDF7E0FF23
:102CA000FFF74EFD04E07D4B31225A70FFF758FDCF
:102CB0007E4B30221A70002008BD784B32225A70A9
:102CC000FFF74EFD764B1B79302B0CD0312BEFD11B
:102CD000744B30225A70002202217548FDF7C0FF64
:102CE000FFF72EFDE4E76F4B31225A7001220221DB
:102CF0006F48FDF7B5FFFFF723FDD9E7674B31229A
:102D00009A70FFF72DFDD3E7644B32229A70FFF7DC
:102D100027FD634B1B79302B0CD0312BC8D1614B75
:102D200030229A70002204216148FDF799FFFFF7D5
:102D300007FDBDE75B4B31229A70012204215C48FC
:102D4000FDF78EFFFFF7FCFCB2E7544B3122DA703F
:102D5000FFF706FDACE7514B3222DA70FFF700FDBA
:102D60004F4B1B79302B0DD0312BA1D14D4B302245
:102D7000DA7000224FF400514D48FDF771FFFFF764
:102D8000DFFC95E7474B3122DA7001224FF4005106
:102D90004748FDF765FFFFF7D3FC89E73F4B31223A
:102DA0001A71FFF7DDFC83E73C4B32221A71FFF703
:102DB000D7FC3B4B1B79302B0DD0312B7FF478AFF8
:102DC000384B30221A71002201213748FDF748FFA5
:102DD000FFF7B6FC6CE7334B31221A710122114622
:102DE0003148FDF73DFFFFF7ABFC61E72B4B31228C
:102DF0005A71FFF7B5FC5BE7284B32225A71FFF797
:102E0000AFFC274B1B79302B0DD0312B7FF450AF0B
:102E1000244B30225A71002202212348FDF720FF63
:102E2000FFF78EFC44E71F4B31225A710122022129
:102E30001D48FDF715FFFFF783FC39E7174B3122DB
:102E40009A71FFF78DFC33E7164B31229A710122FC
:102E500004211548FDF704FFFFF772FC28E700BFC7
:102E600074340008843E0020143400083C3E0020E6
:102E70007834000824340008803400083434000812
:102E800088340008443400089034000854340008A2
:102E90009834000864340008A0340008283E00205C
:102EA0000C000020883E0020000C0240343E002030
:102EB0000008024008B501224FF400510848FDF710
:102EC000CFFE4FF47A73082206490748FEF742FC0A
:102ED000FFF728FDFFF740FD1420FEF7D2FCEAE7DC
:102EE000000C0240343E0020443E0020FEE700007B
:102EF00008B50B480B4B03604FF4E13343600023EC
:102F00008360C36003610C2242618361C361FEF789
:102F100082FB00B908BD40F269210348FFF7E6FFD4
:102F2000443E002000440040A834000800B585B0AD
:102F30001548164B0360002343608360036183617F
:102F40000362C362124A8262C3600122C2610363E8
:102F50004261FDF7C3FB60B9012300930193002395
:102F6000029369460848FDF763FC38B905B05DF87F
:102F700004FB40F227210748FFF7B8FF40F2312158
:102F80000448FFF7B3FF00BFE03D002000200140F0
:102F90000100000FA834000800B585B01548164B95
:102FA0000360002343608360036183610362C36243
:102FB000124A8262C3600122C26103634261FDF76B
:102FC0008DFB68B90823009301230193002302932A
:102FD00069460848FDF72CFC38B905B05DF804FBDC
:102FE0004FF413710648FFF781FF40F25621044861
:102FF000FFF77CFF903D0020002101400100000F01
:10300000A834000800B595B0002301932A4A116C3A
:1030100041F080511164126C02F080520192019AC9
:103020000293264A116841F480411160126802F44B
:1030300080420292029A0222089201210B911021F1
:103040000C910E920F9308231093322311930423B3
:1030500012930723139308A8FDF708FE08BB0F235C
:10306000039302230493002105914FF480530693A8
:10307000079303A8FEF732F8C0B9FEF7DBF8104B50
:10308000A3FB00308009FDF7E1FC0420FDF7F4FC10
:1030900000220F214FF0FF30FDF7A4FC15B05DF8C2
:1030A00004FB4FF4FA710748FFF720FF40F20221BA
:1030B0000448FFF71BFF00BF0038024000700040CB
:1030C000D34D6210A834000830B587B0002306E065
:1030D000134A3021D154134A3121D1540133092BE1
:1030E000F6DDFDF723FAFFF78DFFFFF701FAFFF793
:1030F000FFFEFFF71BFFFFF74FFFFFF731FBFFF767
:103100001FFB01AC084D0FCD0FC42B6823600021BD
:1031100001A8FEF79CFB054B1860FEF793FBFEE74A
:10312000883E0020283E0020D03300088C3D00203F
:1031300010B582B000240094214B5A6C42F48042B6
:103140005A645A6C02F480420092009A01941A6CFC
:1031500042F080521A641B6C03F080530193019B70
:103160000320FDF72DFC224621466FF00B00FDF7F2
:1031700039FC224621466FF00A00FDF733FC224657
:1031800021466FF00900FDF72DFC224621466FF025
:103190000400FDF727FC224621466FF00300FDF7EF
:1031A00021FC22460F216FF00100FDF71BFC224697
:1031B0000F214FF0FF30FDF715FC02B010BD00BF2E
:1031C0000038024000B589B003681A4A934205D01E
:1031D000194A934218D009B05DF804FB002101910F
:1031E000164B5A6C42F480725A645B6C03F4807321
:1031F0000193019B0223039303230493059103A9E5
:103200000F48FDF749FCE6E7002102910B4B5A6C91
:1032100042F400725A645B6C03F400730293029BE5
:103220000123039303230493059103A90548FDF7A4
:1032300033FCD0E70020014000210140003802406B
:1032400000000240000402400268114B9A4200D084
:10325000704700B587B0002300930E4B1A6C42F400
:1032600000321A641B6C03F400330093009B0C23A0
:10327000019302230293012303930323049307235F
:10328000059301A90448FDF707FC07B05DF804FBAE
:1032900000440040003802400000024008B5FDF73D
:1032A0005FF9FEF7F7FA08BD0F49D1F8883043F40B
:1032B0007003C1F888300D4B1A6842F001021A60A1
:1032C000002098601A6822F0847222F480321A601A
:1032D000074A5A601A6822F480221A60D8604FF0B8
:1032E00000638B60704700BF00ED00E000380240D3
:1032F00010300024DFF834D0002103E00C4B5B5881
:10330000435004310B480C4B42189A42F6D30B4AF7
:1033100002E0002342F8043B094B9A42F9D3FFF73D
:10332000C3FF00F011F8FFF7CFFE70470000022046
:10333000DC340008000000202000002020000020D5
:10334000943E0020FEE7000070B50D4E0D4CA41B0E
:10335000A4100025A54209D10B4E0C4C00F018F822
:10336000A41BA4100025A54205D170BD56F8253038
:1033700098470135EEE756F8253098470135F2E7D2
:10338000D4340008D4340008D4340008D8340008F9
:10339000F8B500BFF8BC08BC9E467047F8B500BF42
:0833A000F8BC08BC9E46704712
:1033A800BC340008B52E0008000000000000000032
:1033B80080000000B83400088127000800000000E1
:1033C8000000000080000000C0340008B524000898
:1033D8000000000000000000800000000000000065
:1033E80000000000000000000102030406070809AD
:1033F800000000000102030449444C45000000009D
:10340800322B3039256400004C45440031303030CF
:1034180031000000313030303000000032303030C0
:1034280031000000323030303000000033303030AE
:10343800310000003330303030000000343030309C
:10344800310000003430303030000000353030308A
:103458003100000035303030300000003630303078
:103468003100000036303030300000004D4F44004D
:10347800313030303200000032303030320000005D
:103488003330303032000000343030303200000049
:103498003530303032000000363030303200000035
:1034A8002E2E2F5372632F6D61696E2E63000000FC
:1034B800743200007431000064656661756C745480
:0434C80061736B00C1
:0834CC0034CDFF7F0100000078
:0434D400B501000836
:0434D8009101000856
:1034DC000100000010000000AAAAAAAAE80300003C
:1034EC007800000001000000010000000024F4003E
:04000005080032F5C8
:00000001FF
